{
  "address": "0xe7d4b732df200fefb28e5bb1f2cac129155f511a",
  "abi": [
    {
      "inputs": [
        {
          "internalType": "address",
          "name": "_forwarder",
          "type": "address"
        }
      ],
      "stateMutability": "nonpayable",
      "type": "constructor"
    },
    {
      "inputs": [
        {
          "internalType": "address",
          "name": "sender",
          "type": "address"
        },
        {
          "internalType": "uint256",
          "name": "tokenId",
          "type": "uint256"
        },
        {
          "internalType": "address",
          "name": "owner",
          "type": "address"
        }
      ],
      "name": "ERC721IncorrectOwner",
      "type": "error"
    },
    {
      "inputs": [
        {
          "internalType": "address",
          "name": "operator",
          "type": "address"
        },
        {
          "internalType": "uint256",
          "name": "tokenId",
          "type": "uint256"
        }
      ],
      "name": "ERC721InsufficientApproval",
      "type": "error"
    },
    {
      "inputs": [
        {
          "internalType": "address",
          "name": "approver",
          "type": "address"
        }
      ],
      "name": "ERC721InvalidApprover",
      "type": "error"
    },
    {
      "inputs": [
        {
          "internalType": "address",
          "name": "operator",
          "type": "address"
        }
      ],
      "name": "ERC721InvalidOperator",
      "type": "error"
    },
    {
      "inputs": [
        {
          "internalType": "address",
          "name": "owner",
          "type": "address"
        }
      ],
      "name": "ERC721InvalidOwner",
      "type": "error"
    },
    {
      "inputs": [
        {
          "internalType": "address",
          "name": "receiver",
          "type": "address"
        }
      ],
      "name": "ERC721InvalidReceiver",
      "type": "error"
    },
    {
      "inputs": [
        {
          "internalType": "address",
          "name": "sender",
          "type": "address"
        }
      ],
      "name": "ERC721InvalidSender",
      "type": "error"
    },
    {
      "inputs": [
        {
          "internalType": "uint256",
          "name": "tokenId",
          "type": "uint256"
        }
      ],
      "name": "ERC721NonexistentToken",
      "type": "error"
    },
    {
      "anonymous": false,
      "inputs": [
        {
          "indexed": true,
          "internalType": "address",
          "name": "owner",
          "type": "address"
        },
        {
          "indexed": true,
          "internalType": "address",
          "name": "approved",
          "type": "address"
        },
        {
          "indexed": true,
          "internalType": "uint256",
          "name": "tokenId",
          "type": "uint256"
        }
      ],
      "name": "Approval",
      "type": "event"
    },
    {
      "anonymous": false,
      "inputs": [
        {
          "indexed": true,
          "internalType": "address",
          "name": "owner",
          "type": "address"
        },
        {
          "indexed": true,
          "internalType": "address",
          "name": "operator",
          "type": "address"
        },
        {
          "indexed": false,
          "internalType": "bool",
          "name": "approved",
          "type": "bool"
        }
      ],
      "name": "ApprovalForAll",
      "type": "event"
    },
    {
      "anonymous": false,
      "inputs": [
        {
          "indexed": false,
          "internalType": "uint256",
          "name": "_fromTokenId",
          "type": "uint256"
        },
        {
          "indexed": false,
          "internalType": "uint256",
          "name": "_toTokenId",
          "type": "uint256"
        }
      ],
      "name": "BatchMetadataUpdate",
      "type": "event"
    },
    {
      "anonymous": false,
      "inputs": [
        {
          "indexed": false,
          "internalType": "uint256",
          "name": "_tokenId",
          "type": "uint256"
        }
      ],
      "name": "MetadataUpdate",
      "type": "event"
    },
    {
      "anonymous": false,
      "inputs": [
        {
          "indexed": true,
          "internalType": "address",
          "name": "from",
          "type": "address"
        },
        {
          "indexed": true,
          "internalType": "address",
          "name": "to",
          "type": "address"
        },
        {
          "indexed": true,
          "internalType": "uint256",
          "name": "tokenId",
          "type": "uint256"
        }
      ],
      "name": "Transfer",
      "type": "event"
    },
    {
      "inputs": [
        {
          "internalType": "address",
          "name": "to",
          "type": "address"
        },
        {
          "internalType": "uint256",
          "name": "tokenId",
          "type": "uint256"
        }
      ],
      "name": "approve",
      "outputs": [],
      "stateMutability": "nonpayable",
      "type": "function"
    },
    {
      "inputs": [
        {
          "internalType": "address",
          "name": "owner",
          "type": "address"
        }
      ],
      "name": "balanceOf",
      "outputs": [
        {
          "internalType": "uint256",
          "name": "",
          "type": "uint256"
        }
      ],
      "stateMutability": "view",
      "type": "function"
    },
    {
      "inputs": [],
      "name": "generateImage",
      "outputs": [
        {
          "internalType": "string",
          "name": "",
          "type": "string"
        }
      ],
      "stateMutability": "pure",
      "type": "function"
    },
    {
      "inputs": [
        {
          "internalType": "uint256",
          "name": "tokenId",
          "type": "uint256"
        }
      ],
      "name": "getApproved",
      "outputs": [
        {
          "internalType": "address",
          "name": "",
          "type": "address"
        }
      ],
      "stateMutability": "view",
      "type": "function"
    },
    {
      "inputs": [
        {
          "internalType": "uint256",
          "name": "tokenId",
          "type": "uint256"
        }
      ],
      "name": "getTokenURI",
      "outputs": [
        {
          "internalType": "string",
          "name": "",
          "type": "string"
        }
      ],
      "stateMutability": "pure",
      "type": "function"
    },
    {
      "inputs": [],
      "name": "getTrustedForwarder",
      "outputs": [
        {
          "internalType": "address",
          "name": "forwarder",
          "type": "address"
        }
      ],
      "stateMutability": "view",
      "type": "function"
    },
    {
      "inputs": [
        {
          "internalType": "address",
          "name": "owner",
          "type": "address"
        },
        {
          "internalType": "address",
          "name": "operator",
          "type": "address"
        }
      ],
      "name": "isApprovedForAll",
      "outputs": [
        {
          "internalType": "bool",
          "name": "",
          "type": "bool"
        }
      ],
      "stateMutability": "view",
      "type": "function"
    },
    {
      "inputs": [
        {
          "internalType": "address",
          "name": "forwarder",
          "type": "address"
        }
      ],
      "name": "isTrustedForwarder",
      "outputs": [
        {
          "internalType": "bool",
          "name": "",
          "type": "bool"
        }
      ],
      "stateMutability": "view",
      "type": "function"
    },
    {
      "inputs": [],
      "name": "mint",
      "outputs": [],
      "stateMutability": "nonpayable",
      "type": "function"
    },
    {
      "inputs": [],
      "name": "name",
      "outputs": [
        {
          "internalType": "string",
          "name": "",
          "type": "string"
        }
      ],
      "stateMutability": "view",
      "type": "function"
    },
    {
      "inputs": [
        {
          "internalType": "uint256",
          "name": "tokenId",
          "type": "uint256"
        }
      ],
      "name": "ownerOf",
      "outputs": [
        {
          "internalType": "address",
          "name": "",
          "type": "address"
        }
      ],
      "stateMutability": "view",
      "type": "function"
    },
    {
      "inputs": [
        {
          "internalType": "address",
          "name": "from",
          "type": "address"
        },
        {
          "internalType": "address",
          "name": "to",
          "type": "address"
        },
        {
          "internalType": "uint256",
          "name": "tokenId",
          "type": "uint256"
        }
      ],
      "name": "safeTransferFrom",
      "outputs": [],
      "stateMutability": "nonpayable",
      "type": "function"
    },
    {
      "inputs": [
        {
          "internalType": "address",
          "name": "from",
          "type": "address"
        },
        {
          "internalType": "address",
          "name": "to",
          "type": "address"
        },
        {
          "internalType": "uint256",
          "name": "tokenId",
          "type": "uint256"
        },
        {
          "internalType": "bytes",
          "name": "data",
          "type": "bytes"
        }
      ],
      "name": "safeTransferFrom",
      "outputs": [],
      "stateMutability": "nonpayable",
      "type": "function"
    },
    {
      "inputs": [
        {
          "internalType": "address",
          "name": "operator",
          "type": "address"
        },
        {
          "internalType": "bool",
          "name": "approved",
          "type": "bool"
        }
      ],
      "name": "setApprovalForAll",
      "outputs": [],
      "stateMutability": "nonpayable",
      "type": "function"
    },
    {
      "inputs": [
        {
          "internalType": "bytes4",
          "name": "interfaceId",
          "type": "bytes4"
        }
      ],
      "name": "supportsInterface",
      "outputs": [
        {
          "internalType": "bool",
          "name": "",
          "type": "bool"
        }
      ],
      "stateMutability": "view",
      "type": "function"
    },
    {
      "inputs": [],
      "name": "symbol",
      "outputs": [
        {
          "internalType": "string",
          "name": "",
          "type": "string"
        }
      ],
      "stateMutability": "view",
      "type": "function"
    },
    {
      "inputs": [],
      "name": "tokenIds",
      "outputs": [
        {
          "internalType": "uint256",
          "name": "",
          "type": "uint256"
        }
      ],
      "stateMutability": "view",
      "type": "function"
    },
    {
      "inputs": [
        {
          "internalType": "uint256",
          "name": "tokenId",
          "type": "uint256"
        }
      ],
      "name": "tokenURI",
      "outputs": [
        {
          "internalType": "string",
          "name": "",
          "type": "string"
        }
      ],
      "stateMutability": "view",
      "type": "function"
    },
    {
      "inputs": [
        {
          "internalType": "address",
          "name": "from",
          "type": "address"
        },
        {
          "internalType": "address",
          "name": "to",
          "type": "address"
        },
        {
          "internalType": "uint256",
          "name": "tokenId",
          "type": "uint256"
        }
      ],
      "name": "transferFrom",
      "outputs": [],
      "stateMutability": "nonpayable",
      "type": "function"
    }
  ],
  "transactionHash": "0xf856caf1ce8b796947f46970dc5f2a6f577c49d77f6064597cdca9e2a8441d4f",
  "args": [
    "0x0ae8FC9867CB4a124d7114B8bd15C4c78C4D40E5"
  ],
  "numDeployments": 1,
  "solcInputHash": "1c22f3716e3a4d5780e8fcee6e46812f",
  "bytecode": "0x60806040523480156200001157600080fd5b50604051620034ff380380620034ff83398181016040528101906200003791906200018f565b6040518060400160405280600881526020017f54657374204e46540000000000000000000000000000000000000000000000008152506040518060400160405280600481526020017f544e4654000000000000000000000000000000000000000000000000000000008152508160009081620000b491906200043b565b508060019081620000c691906200043b565b505050620000da81620000e160201b60201c565b5062000522565b80600860006101000a81548173ffffffffffffffffffffffffffffffffffffffff021916908373ffffffffffffffffffffffffffffffffffffffff16021790555050565b600080fd5b600073ffffffffffffffffffffffffffffffffffffffff82169050919050565b600062000157826200012a565b9050919050565b62000169816200014a565b81146200017557600080fd5b50565b60008151905062000189816200015e565b92915050565b600060208284031215620001a857620001a762000125565b5b6000620001b88482850162000178565b91505092915050565b600081519050919050565b7f4e487b7100000000000000000000000000000000000000000000000000000000600052604160045260246000fd5b7f4e487b7100000000000000000000000000000000000000000000000000000000600052602260045260246000fd5b600060028204905060018216806200024357607f821691505b602082108103620002595762000258620001fb565b5b50919050565b60008190508160005260206000209050919050565b60006020601f8301049050919050565b600082821b905092915050565b600060088302620002c37fffffffffffffffffffffffffffffffffffffffffffffffffffffffffffffffff8262000284565b620002cf868362000284565b95508019841693508086168417925050509392505050565b6000819050919050565b6000819050919050565b60006200031c620003166200031084620002e7565b620002f1565b620002e7565b9050919050565b6000819050919050565b6200033883620002fb565b62000350620003478262000323565b84845462000291565b825550505050565b600090565b6200036762000358565b620003748184846200032d565b505050565b5b818110156200039c57620003906000826200035d565b6001810190506200037a565b5050565b601f821115620003eb57620003b5816200025f565b620003c08462000274565b81016020851015620003d0578190505b620003e8620003df8562000274565b83018262000379565b50505b505050565b600082821c905092915050565b60006200041060001984600802620003f0565b1980831691505092915050565b60006200042b8383620003fd565b9150826002028217905092915050565b6200044682620001c1565b67ffffffffffffffff811115620004625762000461620001cc565b5b6200046e82546200022a565b6200047b828285620003a0565b600060209050601f831160018114620004b357600084156200049e578287015190505b620004aa85826200041d565b8655506200051a565b601f198416620004c3866200025f565b60005b82811015620004ed57848901518255600182019150602085019450602081019050620004c6565b868310156200050d578489015162000509601f891682620003fd565b8355505b6001600288020188555050505b505050505050565b612fcd80620005326000396000f3fe608060405234801561001057600080fd5b50600436106101215760003560e01c80636352211e116100ad578063a755257611610071578063a75525761461031a578063b88d4fde14610338578063c87b56dd14610354578063ce1b815f14610384578063e985e9c5146103a257610121565b80636352211e1461026257806370a0823114610292578063714cff56146102c257806395d89b41146102e0578063a22cb465146102fe57610121565b80631249c58b116100f45780631249c58b146101c057806323b872dd146101ca5780633bb3a24d146101e657806342842e0e14610216578063572b6c051461023257610121565b806301ffc9a71461012657806306fdde0314610156578063081812fc14610174578063095ea7b3146101a4575b600080fd5b610140600480360381019061013b9190611bf9565b6103d2565b60405161014d9190611c41565b60405180910390f35b61015e610433565b60405161016b9190611cec565b60405180910390f35b61018e60048036038101906101899190611d44565b6104c5565b60405161019b9190611db2565b60405180910390f35b6101be60048036038101906101b99190611df9565b6104e1565b005b6101c86104f7565b005b6101e460048036038101906101df9190611e39565b61053c565b005b61020060048036038101906101fb9190611d44565b61063e565b60405161020d9190611cec565b60405180910390f35b610230600480360381019061022b9190611e39565b6106a5565b005b61024c60048036038101906102479190611e8c565b6106c5565b6040516102599190611c41565b60405180910390f35b61027c60048036038101906102779190611d44565b61071f565b6040516102899190611db2565b60405180910390f35b6102ac60048036038101906102a79190611e8c565b610731565b6040516102b99190611ec8565b60405180910390f35b6102ca6107eb565b6040516102d79190611ec8565b60405180910390f35b6102e86107f1565b6040516102f59190611cec565b60405180910390f35b61031860048036038101906103139190611f0f565b610883565b005b610322610899565b60405161032f9190611cec565b60405180910390f35b610352600480360381019061034d9190612084565b6108eb565b005b61036e60048036038101906103699190611d44565b610908565b60405161037b9190611cec565b60405180910390f35b61038c610a1b565b6040516103999190611db2565b60405180910390f35b6103bc60048036038101906103b79190612107565b610a45565b6040516103c99190611c41565b60405180910390f35b6000634906490660e01b7bffffffffffffffffffffffffffffffffffffffffffffffffffffffff1916827bffffffffffffffffffffffffffffffffffffffffffffffffffffffff1916148061042c575061042b82610ad9565b5b9050919050565b60606000805461044290612176565b80601f016020809104026020016040519081016040528092919081815260200182805461046e90612176565b80156104bb5780601f10610490576101008083540402835291602001916104bb565b820191906000526020600020905b81548152906001019060200180831161049e57829003601f168201915b5050505050905090565b60006104d082610bbb565b506104da82610c43565b9050919050565b6104f382826104ee610c80565b610cb7565b5050565b6000600754905060076000815480929190610511906121d6565b9190505550610527610521610c80565b82610cc9565b610539816105348361063e565b610ce7565b50565b600073ffffffffffffffffffffffffffffffffffffffff168273ffffffffffffffffffffffffffffffffffffffff16036105ae5760006040517f64a0ae920000000000000000000000000000000000000000000000000000000081526004016105a59190611db2565b60405180910390fd5b60006105c283836105bd610c80565b610d43565b90508373ffffffffffffffffffffffffffffffffffffffff168173ffffffffffffffffffffffffffffffffffffffff1614610638578382826040517f64283d7b00000000000000000000000000000000000000000000000000000000815260040161062f9392919061221e565b60405180910390fd5b50505050565b6060600061064b83610f5d565b610653610899565b6040516020016106649291906124cb565b604051602081830303815290604052905061067e8161102b565b60405160200161068e9190612588565b604051602081830303815290604052915050919050565b6106c0838383604051806020016040528060008152506108eb565b505050565b6000600860009054906101000a900473ffffffffffffffffffffffffffffffffffffffff1673ffffffffffffffffffffffffffffffffffffffff168273ffffffffffffffffffffffffffffffffffffffff16149050919050565b600061072a82610bbb565b9050919050565b60008073ffffffffffffffffffffffffffffffffffffffff168273ffffffffffffffffffffffffffffffffffffffff16036107a45760006040517f89c62b6400000000000000000000000000000000000000000000000000000000815260040161079b9190611db2565b60405180910390fd5b600360008373ffffffffffffffffffffffffffffffffffffffff1673ffffffffffffffffffffffffffffffffffffffff168152602001908152602001600020549050919050565b60075481565b60606001805461080090612176565b80601f016020809104026020016040519081016040528092919081815260200182805461082c90612176565b80156108795780601f1061084e57610100808354040283529160200191610879565b820191906000526020600020905b81548152906001019060200180831161085c57829003601f168201915b5050505050905090565b61089561088e610c80565b838361118e565b5050565b606060006040516020016108ac906129f8565b60405160208183030381529060405290506108c68161102b565b6040516020016108d69190612ab1565b60405160208183030381529060405291505090565b6108f684848461053c565b610902848484846112fd565b50505050565b606061091382610bbb565b50600060066000848152602001908152602001600020805461093490612176565b80601f016020809104026020016040519081016040528092919081815260200182805461096090612176565b80156109ad5780601f10610982576101008083540402835291602001916109ad565b820191906000526020600020905b81548152906001019060200180831161099057829003601f168201915b5050505050905060006109be6114b4565b905060008151036109d3578192505050610a16565b600082511115610a085780826040516020016109f0929190612ad3565b60405160208183030381529060405292505050610a16565b610a11846114cb565b925050505b919050565b6000600860009054906101000a900473ffffffffffffffffffffffffffffffffffffffff16905090565b6000600560008473ffffffffffffffffffffffffffffffffffffffff1673ffffffffffffffffffffffffffffffffffffffff16815260200190815260200160002060008373ffffffffffffffffffffffffffffffffffffffff1673ffffffffffffffffffffffffffffffffffffffff16815260200190815260200160002060009054906101000a900460ff16905092915050565b60007f80ac58cd000000000000000000000000000000000000000000000000000000007bffffffffffffffffffffffffffffffffffffffffffffffffffffffff1916827bffffffffffffffffffffffffffffffffffffffffffffffffffffffff19161480610ba457507f5b5e139f000000000000000000000000000000000000000000000000000000007bffffffffffffffffffffffffffffffffffffffffffffffffffffffff1916827bffffffffffffffffffffffffffffffffffffffffffffffffffffffff1916145b80610bb45750610bb382611534565b5b9050919050565b600080610bc78361159e565b9050600073ffffffffffffffffffffffffffffffffffffffff168173ffffffffffffffffffffffffffffffffffffffff1603610c3a57826040517f7e273289000000000000000000000000000000000000000000000000000000008152600401610c319190611ec8565b60405180910390fd5b80915050919050565b60006004600083815260200190815260200160002060009054906101000a900473ffffffffffffffffffffffffffffffffffffffff169050919050565b60006014600036905010158015610c9c5750610c9b336106c5565b5b15610cb057601436033560601c9050610cb4565b3390505b90565b610cc483838360016115db565b505050565b610ce38282604051806020016040528060008152506117a0565b5050565b80600660008481526020019081526020016000209081610d079190612ca3565b507ff8e1a15aba9398e019f0b49df1a4fde98ee17ae345cb5f6b5e2c27f5033e8ce782604051610d379190611ec8565b60405180910390a15050565b600080610d4f8461159e565b9050600073ffffffffffffffffffffffffffffffffffffffff168373ffffffffffffffffffffffffffffffffffffffff1614610d9157610d908184866117bc565b5b600073ffffffffffffffffffffffffffffffffffffffff168173ffffffffffffffffffffffffffffffffffffffff1614610e2257610dd36000856000806115db565b6001600360008373ffffffffffffffffffffffffffffffffffffffff1673ffffffffffffffffffffffffffffffffffffffff168152602001908152602001600020600082825403925050819055505b600073ffffffffffffffffffffffffffffffffffffffff168573ffffffffffffffffffffffffffffffffffffffff1614610ea5576001600360008773ffffffffffffffffffffffffffffffffffffffff1673ffffffffffffffffffffffffffffffffffffffff168152602001908152602001600020600082825401925050819055505b846002600086815260200190815260200160002060006101000a81548173ffffffffffffffffffffffffffffffffffffffff021916908373ffffffffffffffffffffffffffffffffffffffff160217905550838573ffffffffffffffffffffffffffffffffffffffff168273ffffffffffffffffffffffffffffffffffffffff167fddf252ad1be2c89b69c2b068fc378daa952ba7f163c4a11628f55a4df523b3ef60405160405180910390a4809150509392505050565b606060006001610f6c84611880565b01905060008167ffffffffffffffff811115610f8b57610f8a611f59565b5b6040519080825280601f01601f191660200182016040528015610fbd5781602001600182028036833780820191505090505b509050600082602001820190505b600115611020578080600190039150507f3031323334353637383961626364656600000000000000000000000000000000600a86061a8153600a858161101457611013612d75565b5b04945060008503610fcb575b819350505050919050565b6060600082510361104d57604051806020016040528060008152509050611189565b6000604051806060016040528060408152602001612f58604091399050600060036002855161107c9190612da4565b6110869190612dd8565b60046110929190612e09565b67ffffffffffffffff8111156110ab576110aa611f59565b5b6040519080825280601f01601f1916602001820160405280156110dd5781602001600182028036833780820191505090505b509050600182016020820185865187015b80821015611149576003820191508151603f8160121c168501518453600184019350603f81600c1c168501518453600184019350603f8160061c168501518453600184019350603f81168501518453600184019350506110ee565b5050600386510660018114611165576002811461117857611180565b603d6001830353603d6002830353611180565b603d60018303535b50505080925050505b919050565b600073ffffffffffffffffffffffffffffffffffffffff168273ffffffffffffffffffffffffffffffffffffffff16036111ff57816040517f5b08ba180000000000000000000000000000000000000000000000000000000081526004016111f69190611db2565b60405180910390fd5b80600560008573ffffffffffffffffffffffffffffffffffffffff1673ffffffffffffffffffffffffffffffffffffffff16815260200190815260200160002060008473ffffffffffffffffffffffffffffffffffffffff1673ffffffffffffffffffffffffffffffffffffffff16815260200190815260200160002060006101000a81548160ff0219169083151502179055508173ffffffffffffffffffffffffffffffffffffffff168373ffffffffffffffffffffffffffffffffffffffff167f17307eab39ab6107e8899845ad3d59bd9653f200f220920489ca2b5937696c31836040516112f09190611c41565b60405180910390a3505050565b60008373ffffffffffffffffffffffffffffffffffffffff163b11156114ae578273ffffffffffffffffffffffffffffffffffffffff1663150b7a02611341610c80565b8685856040518563ffffffff1660e01b81526004016113639493929190612ea0565b6020604051808303816000875af192505050801561139f57506040513d601f19601f8201168201806040525081019061139c9190612f01565b60015b611423573d80600081146113cf576040519150601f19603f3d011682016040523d82523d6000602084013e6113d4565b606091505b50600081510361141b57836040517f64a0ae920000000000000000000000000000000000000000000000000000000081526004016114129190611db2565b60405180910390fd5b805181602001fd5b63150b7a0260e01b7bffffffffffffffffffffffffffffffffffffffffffffffffffffffff1916817bffffffffffffffffffffffffffffffffffffffffffffffffffffffff1916146114ac57836040517f64a0ae920000000000000000000000000000000000000000000000000000000081526004016114a39190611db2565b60405180910390fd5b505b50505050565b606060405180602001604052806000815250905090565b60606114d682610bbb565b5060006114e16114b4565b90506000815111611501576040518060200160405280600081525061152c565b8061150b84610f5d565b60405160200161151c929190612ad3565b6040516020818303038152906040525b915050919050565b60007f01ffc9a7000000000000000000000000000000000000000000000000000000007bffffffffffffffffffffffffffffffffffffffffffffffffffffffff1916827bffffffffffffffffffffffffffffffffffffffffffffffffffffffff1916149050919050565b60006002600083815260200190815260200160002060009054906101000a900473ffffffffffffffffffffffffffffffffffffffff169050919050565b80806116145750600073ffffffffffffffffffffffffffffffffffffffff168273ffffffffffffffffffffffffffffffffffffffff1614155b1561174857600061162484610bbb565b9050600073ffffffffffffffffffffffffffffffffffffffff168373ffffffffffffffffffffffffffffffffffffffff161415801561168f57508273ffffffffffffffffffffffffffffffffffffffff168173ffffffffffffffffffffffffffffffffffffffff1614155b80156116a257506116a08184610a45565b155b156116e457826040517fa9fbf51f0000000000000000000000000000000000000000000000000000000081526004016116db9190611db2565b60405180910390fd5b811561174657838573ffffffffffffffffffffffffffffffffffffffff168273ffffffffffffffffffffffffffffffffffffffff167f8c5be1e5ebec7d5bd14f71427d1e84f3dd0314c0f7b2291e5b200ac8c7c3b92560405160405180910390a45b505b836004600085815260200190815260200160002060006101000a81548173ffffffffffffffffffffffffffffffffffffffff021916908373ffffffffffffffffffffffffffffffffffffffff16021790555050505050565b6117aa83836119d3565b6117b760008484846112fd565b505050565b6117c7838383611acc565b61187b57600073ffffffffffffffffffffffffffffffffffffffff168373ffffffffffffffffffffffffffffffffffffffff160361183c57806040517f7e2732890000000000000000000000000000000000000000000000000000000081526004016118339190611ec8565b60405180910390fd5b81816040517f177e802f000000000000000000000000000000000000000000000000000000008152600401611872929190612f2e565b60405180910390fd5b505050565b600080600090507a184f03e93ff9f4daa797ed6e38ed64bf6a1f01000000000000000083106118de577a184f03e93ff9f4daa797ed6e38ed64bf6a1f01000000000000000083816118d4576118d3612d75565b5b0492506040810190505b6d04ee2d6d415b85acef8100000000831061191b576d04ee2d6d415b85acef8100000000838161191157611910612d75565b5b0492506020810190505b662386f26fc10000831061194a57662386f26fc1000083816119405761193f612d75565b5b0492506010810190505b6305f5e1008310611973576305f5e100838161196957611968612d75565b5b0492506008810190505b612710831061199857612710838161198e5761198d612d75565b5b0492506004810190505b606483106119bb57606483816119b1576119b0612d75565b5b0492506002810190505b600a83106119ca576001810190505b80915050919050565b600073ffffffffffffffffffffffffffffffffffffffff168273ffffffffffffffffffffffffffffffffffffffff1603611a455760006040517f64a0ae92000000000000000000000000000000000000000000000000000000008152600401611a3c9190611db2565b60405180910390fd5b6000611a5383836000610d43565b9050600073ffffffffffffffffffffffffffffffffffffffff168173ffffffffffffffffffffffffffffffffffffffff1614611ac75760006040517f73c6ac6e000000000000000000000000000000000000000000000000000000008152600401611abe9190611db2565b60405180910390fd5b505050565b60008073ffffffffffffffffffffffffffffffffffffffff168373ffffffffffffffffffffffffffffffffffffffff1614158015611b8457508273ffffffffffffffffffffffffffffffffffffffff168473ffffffffffffffffffffffffffffffffffffffff161480611b455750611b448484610a45565b5b80611b8357508273ffffffffffffffffffffffffffffffffffffffff16611b6b83610c43565b73ffffffffffffffffffffffffffffffffffffffff16145b5b90509392505050565b6000604051905090565b600080fd5b600080fd5b60007fffffffff0000000000000000000000000000000000000000000000000000000082169050919050565b611bd681611ba1565b8114611be157600080fd5b50565b600081359050611bf381611bcd565b92915050565b600060208284031215611c0f57611c0e611b97565b5b6000611c1d84828501611be4565b91505092915050565b60008115159050919050565b611c3b81611c26565b82525050565b6000602082019050611c566000830184611c32565b92915050565b600081519050919050565b600082825260208201905092915050565b60005b83811015611c96578082015181840152602081019050611c7b565b60008484015250505050565b6000601f19601f8301169050919050565b6000611cbe82611c5c565b611cc88185611c67565b9350611cd8818560208601611c78565b611ce181611ca2565b840191505092915050565b60006020820190508181036000830152611d068184611cb3565b905092915050565b6000819050919050565b611d2181611d0e565b8114611d2c57600080fd5b50565b600081359050611d3e81611d18565b92915050565b600060208284031215611d5a57611d59611b97565b5b6000611d6884828501611d2f565b91505092915050565b600073ffffffffffffffffffffffffffffffffffffffff82169050919050565b6000611d9c82611d71565b9050919050565b611dac81611d91565b82525050565b6000602082019050611dc76000830184611da3565b92915050565b611dd681611d91565b8114611de157600080fd5b50565b600081359050611df381611dcd565b92915050565b60008060408385031215611e1057611e0f611b97565b5b6000611e1e85828601611de4565b9250506020611e2f85828601611d2f565b9150509250929050565b600080600060608486031215611e5257611e51611b97565b5b6000611e6086828701611de4565b9350506020611e7186828701611de4565b9250506040611e8286828701611d2f565b9150509250925092565b600060208284031215611ea257611ea1611b97565b5b6000611eb084828501611de4565b91505092915050565b611ec281611d0e565b82525050565b6000602082019050611edd6000830184611eb9565b92915050565b611eec81611c26565b8114611ef757600080fd5b50565b600081359050611f0981611ee3565b92915050565b60008060408385031215611f2657611f25611b97565b5b6000611f3485828601611de4565b9250506020611f4585828601611efa565b9150509250929050565b600080fd5b600080fd5b7f4e487b7100000000000000000000000000000000000000000000000000000000600052604160045260246000fd5b611f9182611ca2565b810181811067ffffffffffffffff82111715611fb057611faf611f59565b5b80604052505050565b6000611fc3611b8d565b9050611fcf8282611f88565b919050565b600067ffffffffffffffff821115611fef57611fee611f59565b5b611ff882611ca2565b9050602081019050919050565b82818337600083830152505050565b600061202761202284611fd4565b611fb9565b90508281526020810184848401111561204357612042611f54565b5b61204e848285612005565b509392505050565b600082601f83011261206b5761206a611f4f565b5b813561207b848260208601612014565b91505092915050565b6000806000806080858703121561209e5761209d611b97565b5b60006120ac87828801611de4565b94505060206120bd87828801611de4565b93505060406120ce87828801611d2f565b925050606085013567ffffffffffffffff8111156120ef576120ee611b9c565b5b6120fb87828801612056565b91505092959194509250565b6000806040838503121561211e5761211d611b97565b5b600061212c85828601611de4565b925050602061213d85828601611de4565b9150509250929050565b7f4e487b7100000000000000000000000000000000000000000000000000000000600052602260045260246000fd5b6000600282049050600182168061218e57607f821691505b6020821081036121a1576121a0612147565b5b50919050565b7f4e487b7100000000000000000000000000000000000000000000000000000000600052601160045260246000fd5b60006121e182611d0e565b91507fffffffffffffffffffffffffffffffffffffffffffffffffffffffffffffffff8203612213576122126121a7565b5b600182019050919050565b60006060820190506122336000830186611da3565b6122406020830185611eb9565b61224d6040830184611da3565b949350505050565b600081905092915050565b7f7b00000000000000000000000000000000000000000000000000000000000000600082015250565b6000612296600183612255565b91506122a182612260565b600182019050919050565b7f226e616d65223a202252616c6c792050726f746f636f6c205465737420230000600082015250565b60006122e2601e83612255565b91506122ed826122ac565b601e82019050919050565b600061230382611c5c565b61230d8185612255565b935061231d818560208601611c78565b80840191505092915050565b7f222c000000000000000000000000000000000000000000000000000000000000600082015250565b600061235f600283612255565b915061236a82612329565b600282019050919050565b7f226465736372697074696f6e223a202254686520416d617a696e672052616c6c60008201527f792050726f746f636f6c204e465473222c000000000000000000000000000000602082015250565b60006123d1603183612255565b91506123dc82612375565b603182019050919050565b7f22696d616765223a202200000000000000000000000000000000000000000000600082015250565b600061241d600a83612255565b9150612428826123e7565b600a82019050919050565b7f2200000000000000000000000000000000000000000000000000000000000000600082015250565b6000612469600183612255565b915061247482612433565b600182019050919050565b7f7d00000000000000000000000000000000000000000000000000000000000000600082015250565b60006124b5600183612255565b91506124c08261247f565b600182019050919050565b60006124d682612289565b91506124e1826122d5565b91506124ed82856122f8565b91506124f882612352565b9150612503826123c4565b915061250e82612410565b915061251a82846122f8565b91506125258261245c565b9150612530826124a8565b91508190509392505050565b7f646174613a6170706c69636174696f6e2f6a736f6e3b6261736536342c000000600082015250565b6000612572601d83612255565b915061257d8261253c565b601d82019050919050565b600061259382612565565b915061259f82846122f8565b915081905092915050565b7f3c73766720786d6c6e733d22687474703a2f2f7777772e77332e6f72672f323060008201527f30302f73766722207072657365727665417370656374526174696f3d22784d6960208201527f6e594d696e206d656574222076696577426f783d22302030203335302033353060408201527f223e000000000000000000000000000000000000000000000000000000000000606082015250565b6000612652606283612255565b915061265d826125aa565b606282019050919050565b7f3c7374796c653e2e62617365207b2066696c6c3a2077686974653b20666f6e7460008201527f2d66616d696c793a2073657269663b20666f6e742d73697a653a20313470783b60208201527f207d3c2f7374796c653e00000000000000000000000000000000000000000000604082015250565b60006126ea604a83612255565b91506126f582612668565b604a82019050919050565b7f3c726563742077696474683d223130302522206865696768743d22313030252260008201527f2066696c6c3d222346434133313122202f3e0000000000000000000000000000602082015250565b600061275c603283612255565b915061276782612700565b603282019050919050565b7f3c7465787420783d223530252220793d223430252220636c6173733d2262617360008201527f652220646f6d696e616e742d626173656c696e653d226d6964646c652220746560208201527f78742d616e63686f723d226d6964646c65223e00000000000000000000000000604082015250565b60006127f4605383612255565b91506127ff82612772565b605382019050919050565b7f537563636573732c2044656d6f20436f6d706c65746521000000000000000000600082015250565b6000612840601783612255565b915061284b8261280a565b601782019050919050565b7f3c2f746578743e00000000000000000000000000000000000000000000000000600082015250565b600061288c600783612255565b915061289782612856565b600782019050919050565b7f3c7465787420783d223530252220793d223530252220636c6173733d2262617360008201527f652220646f6d696e616e742d626173656c696e653d226d6964646c652220746560208201527f78742d616e63686f723d226d6964646c65223e00000000000000000000000000604082015250565b6000612924605383612255565b915061292f826128a2565b605382019050919050565b7f4c6561726e206d6f72653a20646f63732e72616c6c7970726f746f636f6c2e6360008201527f6f6d000000000000000000000000000000000000000000000000000000000000602082015250565b6000612996602283612255565b91506129a18261293a565b602282019050919050565b7f3c2f746578743e3c2f7376673e00000000000000000000000000000000000000600082015250565b60006129e2600d83612255565b91506129ed826129ac565b600d82019050919050565b6000612a0382612645565b9150612a0e826126dd565b9150612a198261274f565b9150612a24826127e7565b9150612a2f82612833565b9150612a3a8261287f565b9150612a4582612917565b9150612a5082612989565b9150612a5b826129d5565b9150819050919050565b7f646174613a696d6167652f7376672b786d6c3b6261736536342c000000000000600082015250565b6000612a9b601a83612255565b9150612aa682612a65565b601a82019050919050565b6000612abc82612a8e565b9150612ac882846122f8565b915081905092915050565b6000612adf82856122f8565b9150612aeb82846122f8565b91508190509392505050565b60008190508160005260206000209050919050565b60006020601f8301049050919050565b600082821b905092915050565b600060088302612b597fffffffffffffffffffffffffffffffffffffffffffffffffffffffffffffffff82612b1c565b612b638683612b1c565b95508019841693508086168417925050509392505050565b6000819050919050565b6000612ba0612b9b612b9684611d0e565b612b7b565b611d0e565b9050919050565b6000819050919050565b612bba83612b85565b612bce612bc682612ba7565b848454612b29565b825550505050565b600090565b612be3612bd6565b612bee818484612bb1565b505050565b5b81811015612c1257612c07600082612bdb565b600181019050612bf4565b5050565b601f821115612c5757612c2881612af7565b612c3184612b0c565b81016020851015612c40578190505b612c54612c4c85612b0c565b830182612bf3565b50505b505050565b600082821c905092915050565b6000612c7a60001984600802612c5c565b1980831691505092915050565b6000612c938383612c69565b9150826002028217905092915050565b612cac82611c5c565b67ffffffffffffffff811115612cc557612cc4611f59565b5b612ccf8254612176565b612cda828285612c16565b600060209050601f831160018114612d0d5760008415612cfb578287015190505b612d058582612c87565b865550612d6d565b601f198416612d1b86612af7565b60005b82811015612d4357848901518255600182019150602085019450602081019050612d1e565b86831015612d605784890151612d5c601f891682612c69565b8355505b6001600288020188555050505b505050505050565b7f4e487b7100000000000000000000000000000000000000000000000000000000600052601260045260246000fd5b6000612daf82611d0e565b9150612dba83611d0e565b9250828201905080821115612dd257612dd16121a7565b5b92915050565b6000612de382611d0e565b9150612dee83611d0e565b925082612dfe57612dfd612d75565b5b828204905092915050565b6000612e1482611d0e565b9150612e1f83611d0e565b9250828202612e2d81611d0e565b91508282048414831517612e4457612e436121a7565b5b5092915050565b600081519050919050565b600082825260208201905092915050565b6000612e7282612e4b565b612e7c8185612e56565b9350612e8c818560208601611c78565b612e9581611ca2565b840191505092915050565b6000608082019050612eb56000830187611da3565b612ec26020830186611da3565b612ecf6040830185611eb9565b8181036060830152612ee18184612e67565b905095945050505050565b600081519050612efb81611bcd565b92915050565b600060208284031215612f1757612f16611b97565b5b6000612f2584828501612eec565b91505092915050565b6000604082019050612f436000830185611da3565b612f506020830184611eb9565b939250505056fe4142434445464748494a4b4c4d4e4f505152535455565758595a6162636465666768696a6b6c6d6e6f707172737475767778797a303132333435363738392b2fa26469706673582212207622c4e622e6c04c9f10274730eb0d91c5fa2862cce18cf8c0a8ce45949852d064736f6c63430008140033",
  "devdoc": {
    "errors": {
      "ERC721IncorrectOwner(address,uint256,address)": [
        {
          "details": "Indicates an error related to the ownership over a particular token. Used in transfers.",
          "params": {
            "owner": "Address of the current owner of a token.",
            "sender": "Address whose tokens are being transferred.",
            "tokenId": "Identifier number of a token."
          }
        }
      ],
      "ERC721InsufficientApproval(address,uint256)": [
        {
          "details": "Indicates a failure with the `operator`s approval. Used in transfers.",
          "params": {
            "operator": "Address that may be allowed to operate on tokens without being their owner.",
            "tokenId": "Identifier number of a token."
          }
        }
      ],
      "ERC721InvalidApprover(address)": [
        {
          "details": "Indicates a failure with the `approver` of a token to be approved. Used in approvals.",
          "params": {
            "approver": "Address initiating an approval operation."
          }
        }
      ],
      "ERC721InvalidOperator(address)": [
        {
          "details": "Indicates a failure with the `operator` to be approved. Used in approvals.",
          "params": {
            "operator": "Address that may be allowed to operate on tokens without being their owner."
          }
        }
      ],
      "ERC721InvalidOwner(address)": [
        {
          "details": "Indicates that an address can't be an owner. For example, `address(0)` is a forbidden owner in EIP-20. Used in balance queries.",
          "params": {
            "owner": "Address of the current owner of a token."
          }
        }
      ],
      "ERC721InvalidReceiver(address)": [
        {
          "details": "Indicates a failure with the token `receiver`. Used in transfers.",
          "params": {
            "receiver": "Address to which tokens are being transferred."
          }
        }
      ],
      "ERC721InvalidSender(address)": [
        {
          "details": "Indicates a failure with the token `sender`. Used in transfers.",
          "params": {
            "sender": "Address whose tokens are being transferred."
          }
        }
      ],
      "ERC721NonexistentToken(uint256)": [
        {
          "details": "Indicates a `tokenId` whose `owner` is the zero address.",
          "params": {
            "tokenId": "Identifier number of a token."
          }
        }
      ]
    },
    "events": {
      "Approval(address,address,uint256)": {
        "details": "Emitted when `owner` enables `approved` to manage the `tokenId` token."
      },
      "ApprovalForAll(address,address,bool)": {
        "details": "Emitted when `owner` enables or disables (`approved`) `operator` to manage all of its assets."
      },
      "BatchMetadataUpdate(uint256,uint256)": {
        "details": "This event emits when the metadata of a range of tokens is changed. So that the third-party platforms such as NFT market could timely update the images and related attributes of the NFTs."
      },
      "MetadataUpdate(uint256)": {
        "details": "This event emits when the metadata of a token is changed. So that the third-party platforms such as NFT market could timely update the images and related attributes of the NFT."
      },
      "Transfer(address,address,uint256)": {
        "details": "Emitted when `tokenId` token is transferred from `from` to `to`."
      }
    },
    "kind": "dev",
    "methods": {
      "approve(address,uint256)": {
        "details": "See {IERC721-approve}."
      },
      "balanceOf(address)": {
        "details": "See {IERC721-balanceOf}."
      },
      "getApproved(uint256)": {
        "details": "See {IERC721-getApproved}."
      },
      "isApprovedForAll(address,address)": {
        "details": "See {IERC721-isApprovedForAll}."
      },
      "name()": {
        "details": "See {IERC721Metadata-name}."
      },
      "ownerOf(uint256)": {
        "details": "See {IERC721-ownerOf}."
      },
      "safeTransferFrom(address,address,uint256)": {
        "details": "See {IERC721-safeTransferFrom}."
      },
      "safeTransferFrom(address,address,uint256,bytes)": {
        "details": "See {IERC721-safeTransferFrom}."
      },
      "setApprovalForAll(address,bool)": {
        "details": "See {IERC721-setApprovalForAll}."
      },
      "supportsInterface(bytes4)": {
        "details": "See {IERC165-supportsInterface}"
      },
      "symbol()": {
        "details": "See {IERC721Metadata-symbol}."
      },
      "tokenURI(uint256)": {
        "details": "See {IERC721Metadata-tokenURI}."
      },
      "transferFrom(address,address,uint256)": {
        "details": "See {IERC721-transferFrom}."
      }
    },
    "version": 1
  },
  "userdoc": {
    "kind": "user",
    "methods": {},
    "version": 1
  },
  "storageLayout": {
    "storage": [
      {
        "astId": 328,
        "contract": "contracts/TestNFT.sol:TestNFT",
        "label": "_name",
        "offset": 0,
        "slot": "0",
        "type": "t_string_storage"
      },
      {
        "astId": 330,
        "contract": "contracts/TestNFT.sol:TestNFT",
        "label": "_symbol",
        "offset": 0,
        "slot": "1",
        "type": "t_string_storage"
      },
      {
        "astId": 334,
        "contract": "contracts/TestNFT.sol:TestNFT",
        "label": "_owners",
        "offset": 0,
        "slot": "2",
        "type": "t_mapping(t_uint256,t_address)"
      },
      {
        "astId": 338,
        "contract": "contracts/TestNFT.sol:TestNFT",
        "label": "_balances",
        "offset": 0,
        "slot": "3",
        "type": "t_mapping(t_address,t_uint256)"
      },
      {
        "astId": 342,
        "contract": "contracts/TestNFT.sol:TestNFT",
        "label": "_tokenApprovals",
        "offset": 0,
        "slot": "4",
        "type": "t_mapping(t_uint256,t_address)"
      },
      {
        "astId": 348,
        "contract": "contracts/TestNFT.sol:TestNFT",
        "label": "_operatorApprovals",
        "offset": 0,
        "slot": "5",
        "type": "t_mapping(t_address,t_mapping(t_address,t_bool))"
      },
      {
        "astId": 1467,
        "contract": "contracts/TestNFT.sol:TestNFT",
        "label": "_tokenURIs",
        "offset": 0,
        "slot": "6",
        "type": "t_mapping(t_uint256,t_string_storage)"
      },
      {
        "astId": 3125,
        "contract": "contracts/TestNFT.sol:TestNFT",
        "label": "tokenIds",
        "offset": 0,
        "slot": "7",
        "type": "t_uint256"
      },
      {
        "astId": 3127,
        "contract": "contracts/TestNFT.sol:TestNFT",
        "label": "_trustedForwarder",
        "offset": 0,
        "slot": "8",
        "type": "t_address"
      }
    ],
    "types": {
      "t_address": {
        "encoding": "inplace",
        "label": "address",
        "numberOfBytes": "20"
      },
      "t_bool": {
        "encoding": "inplace",
        "label": "bool",
        "numberOfBytes": "1"
      },
      "t_mapping(t_address,t_bool)": {
        "encoding": "mapping",
        "key": "t_address",
        "label": "mapping(address => bool)",
        "numberOfBytes": "32",
        "value": "t_bool"
      },
      "t_mapping(t_address,t_mapping(t_address,t_bool))": {
        "encoding": "mapping",
        "key": "t_address",
        "label": "mapping(address => mapping(address => bool))",
        "numberOfBytes": "32",
        "value": "t_mapping(t_address,t_bool)"
      },
      "t_mapping(t_address,t_uint256)": {
        "encoding": "mapping",
        "key": "t_address",
        "label": "mapping(address => uint256)",
        "numberOfBytes": "32",
        "value": "t_uint256"
      },
      "t_mapping(t_uint256,t_address)": {
        "encoding": "mapping",
        "key": "t_uint256",
        "label": "mapping(uint256 => address)",
        "numberOfBytes": "32",
        "value": "t_address"
      },
      "t_mapping(t_uint256,t_string_storage)": {
        "encoding": "mapping",
        "key": "t_uint256",
        "label": "mapping(uint256 => string)",
        "numberOfBytes": "32",
        "value": "t_string_storage"
      },
      "t_string_storage": {
        "encoding": "bytes",
        "label": "string",
        "numberOfBytes": "32"
      },
      "t_uint256": {
        "encoding": "inplace",
        "label": "uint256",
        "numberOfBytes": "32"
      }
    }
  }
}